:02000004080AE8
:1000000000000A083C280A08000006000600050156
:080010000402DE0500000000FF
:04001800581F0A085B
:10001C0009480A4908B5884205D0094A824202D0EB
:10002C00121A01F04FFF0748074A0021121A01F07B
:10003C0054FF064808BD00BF00000020A4270A0892
:10004C0070000020700000203806002038060020C8
:10005C0070B501F039FA074B074C1E46E41AA40898
:10006C000025A54204D056F8253098470135F8E70D
:10007C0070BD00BF68270A08A0270A0800F01EB848
:10008C0008B500F037F8BDE8084001F0DFB900F022
:10009C00F7BD000008B5034A00210C2000F064FDF8
:1000AC00FEE700BF31090A080078B0FA80F0400979
:1000BC0070470123037070477047000008B501F0CA
:1000CC00D1F84FF4165101F0B3F800210A2001F0D9
:1000DC0049FA00210B2001F045FA0021032001F020
:1000EC0041FABDE808407021014800F0AABB00BFEE
:1000FC009400002070B53F4800F0E6FB0A2001F0A8
:10010C0055FA01F007FD4FF0814101F04DFC01461D
:10011C0001F04CFC384901F005FE4FF07E5101F026
:10012C0043FC01F09BFE354E354C30600B2001F04A
:10013C003DFA01F0EFFC4FF0814101F035FC014636
:10014C0001F034FC2C4901F0EDFD4FF07E5101F033
:10015C002BFC01F083FE2060032001F014FA294DE2
:10016C00294B2A6818603368284813442246284CC7
:10017C00072B98BF2B60216813680B44072B98BF83
:10018C002360B5F900100123B4F9002000F0EBFA5C
:10019C00184800F075FB01F065F82D680646002D37
:1001AC0004DA2D2100F0CAFE694200E029460A2239
:1001BC00304600F0D2FE01F055F82D2100F0BEFEC5
:1001CC0001F050F824680546002C04DA2D2100F0CB
:1001DC00B5FE614200E021460A22284600F0BDFE31
:1001EC0001F040F800F0ADFEBDE87040642000F076
:1001FC004FBD00BF9400002000907F45AC00002054
:10020C00B000002000000020A80000207400002096
:10021C000400002010B50446342101F05CFA20469D
:10022C0010BD000010B5064C00F08CFB204600F011
:10023C0053FB2046BDE81040024A034901F046BA80
:10024C007400002070000020C5000A082DE9F04F52
:10025C001E4685B0BDF9383015469A1A002AB8BF2B
:10026C0052420092721A002AB8BF524201920C46B6
:10027C00009A019981468A42BDF83CA005DD3246C0
:10028C001E46134622462C461546B44205DD2A4628
:10029C001D4613462246344616465A1B002AC4EB0A
:1002AC000608B8BF52421FFA88F803920FFA88F773
:1002BC0002229D42B4BF01234FF0FF3397FBF2F7AC
:1002CC000293B4421FDC019A009B48469342D9F832
:1002DC000030C8BF2246D3F810B0C8BF29465346D9
:1002EC00DCBF2A462146D847039BFF1ABBB21FB27C
:1002FC00002F05DA029A08EB030715442DB23FB222
:10030C00013424B2DDE705B0BDE8F08F2DE9F347E9
:10031C00044691460D469846BDF82C600768BDF919
:10032C0028A00096FF69B84723680AF1FF320096AF
:10033C004A44DF6929464346204612B2B84723682F
:10034C0000969F694A46534629462046B84723687B
:10035C0008F1FF310A9629449D694A4653462046C6
:10036C00AC4609B202B0BDE8F047604737B5013B77
:10037C00BDF81850134404681BB2009301956469CE
:10038C000B46A04703B030BD37B5BDF81850046814
:10039C008DE82400013B0B4464691BB2A04703B0F9
:1003AC0030BD2DE9F347054617460C46BDF92880AC
:1003BC00BDF82C9001EB030A54450BDA2B68CDF8F1
:1003CC0000909E69214643463A4628460134B04780
:1003DC0024B2F1E702B0BDE8F08713B5B0F90E20F6
:1003EC000468019100920022B0F90C30646A114645
:1003FC00A04702B010BD7047018181814FF6FF719B
:10040C0030B5084D00244281C28101224460056050
:10041C004476048244820276C18281828276C476DA
:10042C00C46130BD74240A082DE9F04F91B0924696
:10043C00BDF8682089460292C169BDF86C2004465B
:10044C0007929DF87050002940F08980B0F90C207B
:10045C004A4540F30481B0F90E20524540F3FF8029
:10046C00062202FB0592002A40F3F9800AEBC50232
:10047C00002A40F3F480C27E1AB9AF2B84BF01333B
:10048C00DBB206220992774A03EB8303D3180027C9
:10049C000C931FFA8AF6B046052F16BF0C9B00234F
:1004AC00DB5DBAB20393ABB2059305991FFA89F3DE
:1004BC0001FB023109B2089106F1080189B213441B
:1004CC000B911BB229B2069604910A93039BDA078F
:1004DC0010D5012D236803D1D3F810B0029B13E083
:1004EC00029A0192049A0092D3F824B01346BDF9F3
:1004FC00182017E0029B079A934216D0012D23680F
:10050C0008D1D3F810B013460FFA88F20A99204696
:10051C00D8470AE0079A0192049A0092D3F824B0C3
:10052C00134632B208992046D847039B059A5B08BC
:10053C000393069B08F1010813449BB206930B9B93
:10054C001FFA88F816449845B6B2BFD1099B0137FB
:10055C00013B13F0FF037FB209939AD17FE00A7A33
:10056C0048689B1ADBB200EBC30230F833B09378C7
:10057C00012D0693D37809680C9392F905300B91F1
:10058C00079392F9063082BFBDF91C601AB209922A
:10059C00AAB204921FFA89F205920599049A06FBF5
:1005AC000216B2B20A921FFA8AF20026D3180396E8
:1005BC0008920F930C9AF3B2934250D2099A049971
:1005CC000898B21802FB010212B20D920F9ADDF8D4
:1005DC00289013441BB24FF0000A0E93039B06990C
:1005EC005FFA8AF213449142DBB231D95B0701BF47
:1005FC000B9A0BF1010312F80B801FFA83FB18F016
:10060C00800F1AD0012D0CD1059B079A2046991802
:10061C00236851441B690E9A1F4609B2029BB847C6
:10062C000BE002992BB2226801910093526A0FFAE7
:10063C0089F1174620460D9AB847049B4FEA4808A3
:10064C0099445FFA88F80AF1010A1FFA89F9C5E79B
:10065C00069B039A01361A44D3B20393AAE711B04E
:10066C00BDE8F08F6C1F0A087FB5C26904460B46C3
:10067C00002A2ED10A2906D1438A017E028203EB7D
:10068C00C103438268E00D2966D0817E007E69B18A
:10069C00B4F91050062101FB0051B4F90C50A942D9
:1006AC00A1BF2282628A02EBC00262820290E08ABF
:1006BC00B4F912200190A08AB4F9101000902046D1
:1006CC00FFF7B2FE237E228A03EB430302EB4303C4
:1006DC0041E00A2908D100230382927A438A017EE1
:1006EC0001FB0233438237E00D2935D0157AA9423C
:1006FC0032D3517A99422FD351685D1BEDB201EB85
:10070C00C505A97811B3E87800B3A67E207E8EB11A
:10071C0095F905603144B4F9106000FB0161B4F93E
:10072C000C60B14206DB00212182927A618A02FBC5
:10073C00001262820290E08AB4F912200190A08A21
:10074C00B4F9101000902046FFF76EFE2979227E36
:10075C00238A01FB02332382012004B070BD407E4A
:10076C00704700F0EFB82DE9F8431FFA82F8B8F1A2
:10077C00070F07460D46144699462CD88EB2072E05
:10078C0029D8FFF7ECFF022809D003280ED0012846
:10079C0010D1C8F107082C460FFA88F50AE0C6F10B
:1007AC000705C8F107042DB224B203E0C6F1070611
:1007BC00254634B207356400012305F007053C4497
:1007CC0003FA05F5238CB9F1000F01D01D4301E0AC
:1007DC0023EA05052584BDE8F8830368C9B29B6844
:1007EC00184738B505460C4600F012FF297C00F07E
:1007FC009FFA00F00DFF21460F2C28BF0F2141F06E
:10080C00E001FFF7EAFF00F003FFBDE8384000F01D
:10081C0097BA38B505460C4600F0FAFE297C00F074
:10082C0087FA042C28BF002400F0F2FE610041F08E
:10083C008101FFF7D2FF00F0EBFEBDE8384000F07D
:10084C007FBA10B50446017400F0E2FE00F06AFABB
:10085C0000F0DEFE217C00F06BFA00F0D9FE2121C5
:10086C00FFF7BBFF00F0D4FE00F06AFA204600212F
:10087C00FFF7CFFF2046BDE810400F21FFF7B1BFB7
:10088C0038B5044600F0C4FE217C00F051FA00F0AB
:10089C00BFFE036800219B689847A51E0E3400F02C
:1008AC00B7FE35F8021FC9B2FFF797FF00F0B0FE94
:1008BC002988090AFFF791FFA542F0D100F0A8FEA4
:1008CC00BDE8384000F03CBA831E00220E3023F8FD
:1008DC00022F8342FBD1704710B504460822114603
:1008EC00FFF78AFD014B2046236010BDAC240A089B
:1008FC0000F028B808B5024B1B685B6C019308BD6F
:10090C00D001060808B5024B1B689B6C019308BD0F
:10091C00D001060808B5024B1B685B68019308BD43
:10092C009C01060808B5024B1B68DB68019308BDE7
:10093C009C01060808B5024B1B685B69019308BD56
:10094C009C01060808B5024B1B681B68019308BD87
:10095C00B001060808B5024B1B685B68019308BD23
:10096C00B001060808B5024B1B689B68019308BDD3
:10097C00B001060808B5024B1B68DB68019308BD83
:10098C00B001060808B5024B1B685B69019308BDF2
:10099C00B001060808B5024B1B681B6B019308BD20
:1009AC00B001060808B5024B1B68DB6C019308BD4F
:1009BC00AC01060808B5024B1B689B6D019308BD82
:1009CC00AC01060808B5024B1B68DB6D019308BD32
:1009DC00AC01060808B5024B1B681B6E019308BDE1
:1009EC00AC01060808B5024B1B685B6E019308BD91
:1009FC00AC01060808B5024B1B689B6E019308BD41
:100A0C00AC01060808B5024B1B68DB6E019308BDF0
:100A1C00AC01060808B5024B1B681B6F019308BD9F
:100A2C00AC01060808B5024B1B685B6F019308BD4F
:100A3C00AC01060808B5034B1B68D3F88030019352
:100A4C0008BD0000AC01060808B5024B1B68DB6949
:100A5C00019308BDB401060808B5024B1B681B6A5C
:100A6C00019308BDB401060808B5024B1B689B69CD
:100A7C00019308BDC401060808B5024B1B685B6AEC
:100A8C00019308BDC401060808B5024B1B689B6A9C
:100A9C00019308BDC401060808B5024B1B68DB6A4C
:100AAC00019308BDC401060808B5024B1B681B6BFB
:100ABC00019308BDC401060808B5024B1B685B6BAB
:100ACC00019308BDC401060808B5024B1B689B6B5B
:100ADC00019308BDC401060808B5024B1B681B6CCA
:100AEC00019308BDC401060808B5024B1B681B68BE
:100AFC00019308BDD801060808B5024B1B685B685A
:100B0C00019308BDD801060808B5024B1B681B6988
:100B1C00019308BDD801060808B5024B1B685B6938
:100B2C00019308BDD801060808B5024B1B689B69E8
:100B3C00019308BDD801060808B5024B1B68DB6998
:100B4C00019308BDD801060808B5024B1B681B6A47
:100B5C00019308BDD801060808B5024B1B689B6CB5
:100B6C00019308BDC001060808B5024B1B685B6BFE
:100B7C00019308BDA801020808B5024B1B685B680D
:100B8C00019308BDA401060808B5024B1B685B69FC
:100B9C00019308BDA401060808B5034B1B68D3F8E4
:100BAC009030019308BD0000A401060808B5034B62
:100BBC001B68D3F89C30019308BD0000A401060803
:100BCC0008B5024B1B68DB6B019308BDCC01060812
:100BDC0008B5024B1B685B68019308BDC801060889
:100BEC0008B5024B1B689B68019308BDC801060839
:100BFC0008B5024B1B68DB68019308BDC8010608E9
:100C0C0008B5024B1B681B69019308BDC801060897
:100C1C0008B5024B1B685B69019308BDC801060847
:100C2C0008B5024B1B689B69019308BDC8010608F7
:100C3C0008B5024B1B68DB69019308BDC8010608A7
:100C4C0008B5024B1B681B6A019308BDC801060856
:100C5C0008B5024B1B681B6B019308BDC801060845
:100C6C0008B5024B1B685B6B019308BDC8010608F5
:100C7C0008B5024B1B681B68019308BDA001060850
:100C8C0008B5024B1B685B68019308BDA001060800
:100C9C000021FFF779BF10B58368044613B1032216
:100CAC0001469847204610BD7047F8B506461546D4
:100CBC000C468F18BC4206D0336814F8011B9B6895
:100CCC0030469847F6E72846F8BD0022007CFFF72F
:100CDC0081BE0021007CFFF785BE0021007CFFF760
:100CEC0089BE0021007CFFF78DBE0021007CFFF740
:100CFC0091BE10B50446142100F0EDFC204610BD49
:100D0C0010B50446002363604FF47A73A360044B60
:100D1C002174084623601146FFF78CFE204610BD57
:100D2C00E4240A0800231A461946007CFFF73ABE51
:100D3C000022007CFFF73EBE0022007CFFF742BE83
:100D4C000121FFF7F9BF0021007CFFF76BBE704754
:100D5C0010B50446182100F0BEFC204610BDF8B5B5
:100D6C000F4600F10806051D002416F8011D0A2285
:100D7C00384600F0F2F8AE42044407D0002CF4D010
:100D8C002E21384600F0DAF80444EEE72046F8BD90
:100D9C0010B50446044B112240F8043B002101F02D
:100DAC009CF8204610BD00BF0C250A080346074AD4
:100DBC0010B543F8042B01F1100251F8044B914289
:100DCC0043F8044BF9D10A781A7010BD0C250A08A7
:100DDC00024A416002600422027570470C250A0821
:100DEC0010B59DF8084044EA032343EA024242EA64
:100DFC00016104234160037510BD000037B5044D3B
:100E0C0005609DF818500095FFF7EAFF03B030BD60
:100E1C000C250A08014A024B1A6070478E250A08F5
:100E2C00B400002000231A464068FFF7D1BE002210
:100E3C0002214068FFF7DCBE002211464068FFF734
:100E4C00CFBE002211464068FFF7DABE00231A46D7
:100E5C0019464068FFF7DCBE00231A461946406865
:100E6C00FFF7DEBE002281F001014068FFF7E0BE13
:100E7C0000224068FFF7ECBE002211464068FFF7E5
:100E8C00EFBE002211464068FFF7DABE70B5164679
:100E9C008EB0044608A8FFF77BFF1122002103A89F
:100EAC0001F01BF8304601F049F800250A4B00957B
:100EBC0081B25B6803AA3046FFF74EFE20B129468B
:100ECC002046FFF785FF03E003A92046FFF76EFFDE
:100EDC0020460EB070BD00BF3C050020024B034AFB
:100EEC001A6000225A607047B800002004260A08D5
:100EFC00F8B506460D468F180024BD420CD0336859
:100F0C0015F8011B9B6830469847002801DB044408
:100F1C00F3E7002C08BF04462046F8BD70B5054623
:100F2C000C46084649B101F009F82B6802462146E7
:100F3C002846BDE87040DB68184770BD03689B68A5
:100F4C00184738B50D210546FFF7F8FF0A2104466E
:100F5C002846FFF7F3FF204438BD012A98BF0A2228
:100F6C0030B50B468BB000218DF824100DF1230405
:100F7C00B3FBF2F505FB1233DBB2092B94BF303314
:100F8C003733DBB2214604F801392B46002DEFD163
:100F9C00FFF7C4FF0BB030BD10B50446FFF77BFE66
:100FAC00204610BD034800238360034A034900F028
:100FBC008DBB00BFC000002070000020A50F0A08E8
:100FCC0010B5044B04460360C06808B1FFF79AFCE7
:100FDC00204610BD38260A0810B50446FFF7F0FF6E
:100FEC002046102100F077FB204610BD70B504465A
:100FFC000E46074B0025036040F80C5FFFF77AFCA8
:10100C0030462671FFF720FDA560204670BD00BF5D
:10101C0038260A080079FFF71FBD10B50446006892
:10102C0018B1FFF72DFE0023236010BD10B5044648
:10103C00FFF7F3FF204610BD4FF6FF7310B5084CB9
:10104C0000202060A080A07120816381FFF794FDB7
:10105C002046BDE81040034A034900F037BB00BFEF
:10106C00D00000207000002039100A08024B1A68CA
:10107C00024B1A60704700BF08000020DC00002003
:10108C0070474174704708B5007CFFF725FD20EAD6
:10109C00E07008BD08B5007CFFF7F6FC20EAE070B4
:1010AC0008BD08B5007CFFF7FFFC30EA200028BF24
:1010BC004FF0FF3008BD08B5007CFFF7EDFC30EABF
:1010CC00200028BF4FF0FF3008BD007CFFF7F4BCB8
:1010DC0010B50446142100F0FEFA204610BD70B580
:1010EC00457C04460E4625B9007CFFF7F5FC00282C
:1010FC0005DD3146207CBDE87040FFF7BDBC2846BD
:10110C0070BD000010B5044608461146002262600E
:10111C004FF47A72A260054A207422600122627434
:10112C001A46FFF7A1FC204610BD00BF74260A0822
:10113C00007CFFF7C9BC000038B50C4D296811F0D4
:10114C00010411D12846FEF7AFFF68B1084A2146C9
:10115C00084B0948FFF7D6FF2846FEF7AAFF074AB7
:10116C000749054800F0B2FA034838BD7801002061
:10117C007C010020F4000020E00000207000002022
:10118C008D100A0841747047704708B50021007C27
:10119C00FFF7CAFC30EA200028BF4FF0FF3008BD33
:1011AC0008B50121007CFFF7BFFC30EA200028BF06
:1011BC004FF0FF3008BD08B5007CFFF7ADFC20EA0E
:1011CC00E07008BD08B5007CFFF79EFC20EAE070DB
:1011DC0008BD007CFFF7B8BC10B50446142100F024
:1011EC007AFA204610BD38B50446007C0D46FFF750
:1011FC0093FC002801DC607C28B12946207CFFF799
:10120C009BFC20EAE07038BD10B5044600236360F7
:10121C004FF47A73A360054B0846236001232174B5
:10122C0063741146FFF760FC204610BDA4260A0823
:10123C000022007CFFF760BC10B50446142200218C
:10124C0000F04BFE054B20466360054BE36040F21B
:10125C00011323818123238210BD00BF850200204E
:10126C000402002030B50E4D87B001A8FFF7E4FF53
:10127C00296811F0010410D12846FEF715FF60B162
:10128C0001AA21460748FFF7BFFF2846FEF711FFCA
:10129C00054A0649034800F019FA024807B030BD68
:1012AC0000020020880300207000002095110A081D
:1012BC0010B504461422002100F00FFE054B204609
:1012CC006360054BE36040F2011323818123238289
:1012DC0010BD00BF38040020A003002010B50E4C38
:1012EC0086B001A8FFF7E4FF2368DB0710D4204683
:1012FC00FEF7DAFE60B101AA01210848FFF784FF6E
:10130C002046FEF7D6FE064A0649044800F0DEF9F0
:10131C00024806B010BD00BF9C030020240400202E
:10132C007000002095110A08002211464068FFF752
:10133C0067BCF0B5164689B011220F460446002151
:10134C0003A800F0CAFD304600F0F8FD002500951A
:10135C0081B27B6803AA3046FFF7FEFB20B1294619
:10136C002046FFF735FD03E003A92046FFF71EFDDD
:10137C00204609B0F0BD002211464068FFF760BC62
:10138C00002211464068FFF76BBC00224068FFF753
:10139C005FBC002281F001014068FFF749BC0023CB
:1013AC001A4619464068FFF73BBC00231A461946FB
:1013BC004068FFF72DBC002211464068FFF710BCB7
:1013CC00002202214068FFF713BC00231A46406834
:1013DC00FFF7FEBB024B04225A60024A1A607047A8
:1013EC003C050020D4260A0808B5144B33B1FFF78E
:1013FC0039FF03681B699847002816DC104B33B182
:10140C00FFF79AFE03681B699847002810DC0D4B08
:10141C000BB1AFF300800C4B7BB1FFF75FFF0368A0
:10142C001B699847002806DC08BDAFF30080E5E790
:10143C00AFF30080EBE7AFF3008008BD00000000C5
:10144C0000000000000000000000000008B5FFF7DD
:10145C00CBFFFFF76FFA014B186008BD4C0500205D
:10146C000248034A0349121A00F02CBD0040024006
:10147C0004400240A0270A0807B5002300931A462F
:10148C006FF07701FFF792FB03B05DF804FB0000EF
:10149C0007B543880A2B08D0502B09D1094B1B6880
:1014AC003BB103B05DF804EB1847FFF7E5FF06E02E
:1014BC00002300931A466FF07701FFF777FB03B018
:1014CC005DF804FB4405002038B5104C104D236822
:1014DC00AB42104B0CBF012200221A7002D0FFF756
:1014EC00BFFF2560FFF716FA044600F0FFFC0A4B1D
:1014FC0013B12046AFF3008000210748FFF760FBD3
:10150C00BDE8384000210548FFF746BB00400240CB
:10151C001E1C279A48050020000000009D140A0894
:10152C0010B5044600F0B2F8FFF774FD28B1A4F131
:10153C000D03022B01D8002010BD00F069F8FFF755
:10154C0002FC08B1012CF6D9FFF7F6FDFFF7F0FD10
:10155C0018B1A4F11203012BEDD9172C8CBF00206C
:10156C00012010BD172838B504460D460AD8FF29AE
:10157C0008D0FFF7D5FF28B129462046BDE83840F2
:10158C00FFF7F0B938BD10B50446FFF7F3F904388E
:10159C00C0B2012808D92046FFF7C2FF20B120466F
:1015AC00BDE81040FFF7EEB9002010BD10B50446A1
:1015BC0009289CBF0A34A4B22046FFF7B1FF50B1F2
:1015CC0003212046FFF7C6F9032804D12046BDE8C5
:1015DC001040FFF7DFB9002010BD000070B50446C5
:1015EC0014252A46094E002100F077FC2580202581
:1015FC003146A5602561284600F087F831466060C9
:10160C00284600F082F8E060204670BD00270A08EA
:10161C0030B50E4D87B0296811F0010413D128465E
:10162C00FEF742FD78B101A8FFF7D8FF01AA2146C9
:10163C000748FFF765FB2846FEF73BFD054A0649C0
:10164C00034800F043F8024807B030BD50050020B5
:10165C005405002070000020B50C0A0813B5084C86
:10166C0000231A46194600932046FFF7C7FB204675
:10167C00044A054902B0BDE8104000F027B800BF8D
:10168C0068050020700000205B0D0A0838B50B4D72
:10169C00296811F001040FD12846FEF705FD58B159
:1016AC0021460748FFF7A2FC2846FEF702FD054A33
:1016BC000549034800F00AF8014838BD90050020A0
:1016CC008005002070000020CD0F0A080B46014653
:1016DC00184600F0E9BBFEF7DABC0000024B1868B4
:1016EC00BFF35F8F704700BF9405002010B5002832
:1016FC0014BF044601242046FFF7BAFA20B9FFF7BD
:10170C00EDFF08B18047F6E710BDFFF7EFBF000013
:10171C00244B1A68D0075CBF01221A60224B1A684E
:10172C00D1075CBF01221A60204B1A68D2075CBF3C
:10173C0001221A601E4B1A68D0075CBF01221A6086
:10174C001C4B1A68D1075CBF01221A601A4B1A682D
:10175C00D2075CBF01221A60184B1A68D0075CBF15
:10176C0001221A60164B1A68D1075CBF01221A605D
:10177C00144B1A68D2075CBF01221A60124B1A680C
:10178C00D0075CBF01221A60104B1A68D1075CBFEE
:10179C0001221A600E4B1A68D2075CBF01221A6034
:1017AC00704700BFC4050020C0050020BC05002008
:1017BC00B8050020B4050020B0050020AC050020C1
:1017CC00A8050020A4050020A00500209C050020F1
:1017DC0098050020184B1A68D1075CBF01221A60CB
:1017EC00164B1A68D2075CBF01221A60144B1A6898
:1017FC00D0075CBF01221A60124B1A68D1075CBF7C
:10180C0001221A60104B1A68D2075CBF01221A60C1
:10181C000E4B1A68D0075CBF01221A600C4B1A6879
:10182C00D1075CBF01221A600A4B1A68D2075CBF51
:10183C0001221A60704700BFE4050020E00500207B
:10184C00DC050020D8050020D4050020D0050020A0
:10185C00CC050020C8050020184B1A68D1075CBFC6
:10186C0001221A60164B1A68D2075CBF01221A605B
:10187C00144B1A68D0075CBF01221A60124B1A680D
:10188C00D1075CBF01221A60104B1A68D2075CBFEB
:10189C0001221A600E4B1A68D0075CBF01221A6035
:1018AC000C4B1A68D1075CBF01221A600A4B1A68EC
:1018BC00D2075CBF01221A60704700BF04060020EB
:1018CC0000060020FC050020F8050020F40500208F
:1018DC00F0050020EC050020E8050020244B1A68D8
:1018EC00D0075CBF01221A60224B1A68D1075CBF7B
:1018FC0001221A60204B1A68D2075CBF01221A60C1
:10190C001E4B1A68D0075CBF01221A601C4B1A6868
:10191C00D1075CBF01221A601A4B1A68D2075CBF50
:10192C0001221A60184B1A68D0075CBF01221A609A
:10193C00164B1A68D1075CBF01221A60144B1A6847
:10194C00D2075CBF01221A60124B1A68D0075CBF29
:10195C0001221A60104B1A68D1075CBF01221A6071
:10196C000E4B1A68D2075CBF01221A60704700BF89
:10197C0034060020300600202C060020280600200B
:10198C0024060020200600201C060020180600203B
:10199C0014060020100600200C060020080600206B
:1019AC0080F0004002E000BF81F0004142001FBF08
:1019BC005FEA410392EA030F7FEA226C7FEA236C11
:1019CC006AD04FEA1262D2EB1363C1BFD218414006
:1019DC0048404140B8BF5B42192B88BF704710F09C
:1019EC00004F40F4000020F07F4018BF404211F03F
:1019FC00004F41F4000121F07F4118BF494292EAA7
:101A0C00030F3FD0A2F1010241FA03FC10EB0C00D2
:101A1C00C3F1200301FA03F100F0004302D549425F
:101A2C0060EB4000B0F5000F13D3B0F1807F06D30C
:101A3C0040084FEA310102F10102FE2A51D2B1F104
:101A4C00004F40EBC25008BF20F0010040EA0300F9
:101A5C007047490040EB000010F4000FA2F10102A6
:101A6C00EDD1B0FA80FCACF1080CB2EB0C0200FA30
:101A7C000CF0AABF00EBC25052421843BCBFD0407E
:101A8C001843704792F0000F81F4000106BF80F4F8
:101A9C0000000132013BB5E74FEA41037FEA226CBB
:101AAC0018BF7FEA236C21D092EA030F04D092F086
:101ABC00000F08BF0846704790EA010F1CBF0020BA
:101ACC00704712F07F4F04D1400028BF40F0004017
:101ADC00704712F100723CBF00F50000704700F037
:101AEC00004343F0FE4040F4000070477FEA22625E
:101AFC0016BF08467FEA23630146420206BF5FEA2F
:101B0C00412390EA010F40F4800070474FF000032E
:101B1C0004E000BF10F0004348BF40425FEA000CF5
:101B2C0008BF704743F0964301464FF000001CE09D
:101B3C0050EA010208BF70474FF000030AE000BFF3
:101B4C0050EA010208BF704711F0004302D5404231
:101B5C0061EB41015FEA010C02BF844601460020A3
:101B6C0043F0B64308BFA3F18053A3F50003BCFABE
:101B7C008CF2083AA3EBC25310DB01FA02FC63446B
:101B8C0000FA02FCC2F12002BCF1004F20FA02F272
:101B9C0043EB020008BF20F00100704702F1200265
:101BAC0001FA02FCC2F1200250EA4C0021FA02F2C6
:101BBC0043EB020008BF20EADC7070474FF0FF0CCB
:101BCC001CEAD0521EBF1CEAD15392EA0C0F93EAC6
:101BDC000C0F6FD01A4480EA010C400218BF5FEA68
:101BEC0041211ED04FF0006343EA501043EA5111DB
:101BFC00A0FB01310CF00040B1F5000F3EBF4900D5
:101C0C0041EAD3715B0040EA010062F17F02FD2AD8
:101C1C001DD8B3F1004F40EBC25008BF20F00100BB
:101C2C00704790F0000F0CF0004C08BF49024CEAD2
:101C3C00502040EA51207F3AC2BFD2F1FF0340EA64
:101C4C00C250704740F400004FF00003013A5DDCD5
:101C5C0012F1190FDCBF00F000407047C2F1000216
:101C6C00410021FA02F1C2F1200200FA02FC5FEA03
:101C7C00310040F1000053EA4C0308BF20EADC704D
:101C8C00704792F0000F00F0004C02BF400010F4BF
:101C9C00000F013AF9D040EA0C0093F0000F01F06C
:101CAC00004C02BF490011F4000F013BF9D041EA8E
:101CBC000C018FE70CEAD15392EA0C0F18BF93EA90
:101CCC000C0F0AD030F0004C18BF31F0004CD8D1BA
:101CDC0080EA010000F00040704790F0000F17BF41
:101CEC0090F0004F084691F0000F91F0004F14D087
:101CFC0092EA0C0F01D142020FD193EA0C0F03D1DF
:101D0C004B0218BF084608D180EA010000F00040E1
:101D1C0040F0FE4040F40000704740F0FE4040F4BC
:101D2C00400070474FF0FF0C1CEAD0521EBF1CEA5B
:101D3C00D15392EA0C0F93EA0C0F69D0A2EB030279
:101D4C0080EA010C49024FEA402037D04FF0805313
:101D5C0043EA111143EA10130CF000408B4238BFD8
:101D6C005B0042F17D024FF4000C8B4224BF5B1AE6
:101D7C0040EA0C00B3EB510F24BFA3EB510340EA34
:101D8C005C00B3EB910F24BFA3EB910340EA9C00E2
:101D9C00B3EBD10F24BFA3EBD10340EADC001B0152
:101DAC0018BF5FEA1C1CE0D1FD2A3FF650AF8B42F6
:101DBC0040EBC25008BF20F0010070470CF0004C03
:101DCC004CEA50207F32C2BFD2F1FF0340EAC2502E
:101DDC00704740F400004FF00003013A37E792F0EF
:101DEC00000F00F0004C02BF400010F4000F013A4D
:101DFC00F9D040EA0C0093F0000F01F0004C02BF48
:101E0C00490011F4000F013BF9D041EA0C0195E7B0
:101E1C000CEAD15392EA0C0F08D142027FF47DAF49
:101E2C0093EA0C0F7FF470AF084676E793EA0C0F39
:101E3C0004D14B023FF44CAF08466EE730F0004C37
:101E4C0018BF31F0004CCAD130F000427FF45CAFC7
:101E5C0031F000437FF43CAF5FE700BF4FEA400234
:101E6C00B2F1FE4F0FD34FF09E03B3EB12620DD9BC
:101E7C004FEA002343F0004310F0004F23FA02F026
:101E8C0018BF404270474FF00000704712F1610FCD
:101E9C0001D1420205D110F0004008BF6FF00040A4
:101EAC0070474FF00000704710B5054C13462CB12D
:101EBC000A4601460220AFF3008010BD204610BD3B
:101ECC000000000010B5431E0A44914204D011F8E2
:101EDC00014B03F8014FF8E710BD0346024493424F
:101EEC0002D003F8011BFAE77047000038B5124B1B
:101EFC0005461C68A36BD3B91820FEF7B9FE43F254
:101F0C000E33A06303804AF6CD33438041F2342371
:101F1C0083804EF26D63C3804DF6EC630381052321
:101F2C0043810B23838101220023C0E90423A36B8B
:101F3C0000221D615A6138BD6C000020034613F865
:101F4C00012B002AFBD1181A013870471D000A0812
:101F5C005D000A0889000A088D000A0800000000CC
:101F6C0000000000003E5B4F5B3E3E6B4F6B3E1C27
:101F7C003E7C3E1C183C7E3C181C577D571C1C5E3E
:101F8C007F5E1C00183C1800FFE7C3E7FF00182415
:101F9C001800FFE7DBE7FF30483A060E26297929BF
:101FAC0026407F050507407F05253F5A3CE73C5AF4
:101FBC007F3E1C1C08081C1C3E7F14227F22145FD1
:101FCC005F005F5F06097F017F006689956A60602C
:101FDC0060606094A2FFA29408047E040810207E26
:101FEC00201008082A1C08081C2A08081E101010AB
:101FFC00100C1E0C1E0C30383E3830060E3E0E06F1
:10200C00000000000000005F000000070007001443
:10201C007F147F14242A7F2A122313086462364902
:10202C005620500008070300001C224100004122EA
:10203C001C002A1C7F1C2A08083E080800807030EF
:10204C00000808080808000060600020100804025E
:10205C003E5149453E00427F400072494949462164
:10206C0041494D331814127F1027454545393C4AD8
:10207C0049493141211109073649494936464949EF
:10208C00291E000014000000403400000008142237
:10209C0041141414141400412214080201590906A5
:1020AC003E415D594E7C1211127C7F494949363EA6
:1020BC00414141227F4141413E7F494949417F098C
:1020CC000909013E414151737F0808087F00417F97
:1020DC0041002040413F017F081422417F40404095
:1020EC00407F021C027F7F0408107F3E4141413E2D
:1020FC007F090909063E4151215E7F0919294626AF
:10210C004949493203017F01033F4040403F1F20B2
:10211C0040201F3F4038403F631408146303047889
:10212C0004036159494D43007F41414102040810A9
:10213C0020004141417F04020102044040404040E4
:10214C00000307080020545478407F284444383852
:10215C0044444428384444287F38545454180008C4
:10216C007E090218A4A49C787F0804047800447D9E
:10217C0040002040403D007F1028440000417F403B
:10218C00007C047804787C0804047838444444388F
:10219C00FC1824241818242418FC7C08040408486F
:1021AC005454542404043F44243C4040207C1C20C0
:1021BC0040201C3C4030403C44281028444C90901B
:1021CC00907C4464544C4400083641000000770075
:1021DC0000004136080002010204023C2623263C82
:1021EC001EA1A161123A4040207A3854545559210D
:1021FC0055557941225454784221555478402054F5
:10220C005579400C1E527212395555555939545442
:10221C00545939555454580000457C410002457DB1
:10222C00420001457C407D1211127DF0282528F0DA
:10223C007C545545002054547C547C0A097F493207
:10224C00494949323A4444443A324A4848303A417E
:10225C0041217A3A42402078009DA0A07D3D424227
:10226C00423D3D4040403D3C24FF2424487E4943B0
:10227C00662B2FFC2F2BFF0929F620C0887E090323
:10228C0020545479410000447D413048484A32384A
:10229C004040227A007A0A0A727D0D19317D262976
:1022AC00292F28262929292630484D40203808086E
:1022BC00080808080808382F10C8ACBA2F102834A2
:1022CC00FA00007B000008142A142222142A140895
:1022DC005500550055AA55AA55AAFF55FF55FF00A4
:1022EC000000FF00101010FF00141414FF00101059
:1022FC00FF00FF1010F010F0141414FC001414F76D
:10230C0000FF0000FF00FF1414F404FC1414171059
:10231C001F10101F101F1414141F00101010F000A9
:10232C000000001F101010101F10101010F01000E3
:10233C000000FF101010101010101010FF100000F3
:10234C0000FF140000FF00FF00001F10170000FC2E
:10235C0004F414141710171414F404F40000FF0000
:10236C00F714141414141414F700F7141414171489
:10237C0010101F101F141414F4141010F010F0008F
:10238C00001F101F0000001F14000000FC140000B0
:10239C00F010F01010FF10FF141414FF1410101094
:1023AC001F00000000F010FFFFFFFFFFF0F0F0F047
:1023BC00F0FFFFFF0000000000FFFF0F0F0F0F0FDB
:1023CC003844443844FC4A4A4A347E020206060227
:1023DC007E027E0263554941633844443C04407E8E
:1023EC00201E2006027E020299A5E7A5991C2A4907
:1023FC002A1C4C7201724C304A4D4D303048784892
:10240C0030BC625A463D3E494949007E0101017E7D
:10241C002A2A2A2A2A44445F444440514A444040D0
:10242C00444A51400000FF0103E080FF000008080F
:10243C006B6B083612362436060F090F060000188F
:10244C00180000001010003040FF0101001F0101B6
:10245C001E00191D1712003C3C3C3C000000000003
:10246C000000000000000000000000000000000060
:10247C0075060A08FD0E0A08A1000A0859020A0886
:10248C0079030A0895030A0819030A08AF030A0816
:10249C00E7030A0803040A0800000000000000001B
:1024AC00C5000A0821020A0875060A08FD0E0A086A
:1024BC0073070A0859020A0879030A0895030A08DF
:1024CC0019030A08AF030A08E7030A0803040A08F9
:1024DC000000000000000000B50C0A08FF0C0A0800
:1024EC00D70C0A08B70C0A08DF0C0A08E70C0A0814
:1024FC00EF0C0A08F70C0A080000000000000000AE
:10250C006B0D0A085B0D0A085D0D0A0862617564A3
:10251C000053657269616C00555342536572696171
:10252C006C31007479706500706172616D00636D5F
:10253C006400696400686E64007374726D0066698F
:10254C006C74006C766C0061646448616E646C65DC
:10255C00720072656D6F766548616E646C657200B1
:10256C00656E756D48616E646C657273004A534F8D
:10257C004E53747265616D4C6F6748616E646C6527
:10258C00720061707000253031307520005D2000C4
:10259C002564002C200028293A2000205B00636F62
:1025AC006465203D200025690064657461696C7365
:1025BC00203D20000D0A0066006C6E00666E006304
:1025CC006F64650064657461696C006E6F6E6500A4
:1025DC00747261636500696E666F007761726E007C
:1025EC006572726F720070616E696300616C6C0071
:1025FC000000000000000000310E0A083B0E0A0823
:10260C00450E0A084F0E0A08590E0A08650E0A08EC
:10261C00710E0A087D0E0A08850E0A088F0E0A082C
:10262C00990E0A080000000000000000CD0F0A08F7
:10263C00E50F0A085A00252B3033643A25303275E1
:10264C000025592D256D2D25645425483A254D3AE4
:10265C002553257A0061736374696D650000000071
:10266C0000000000000000008D100A08DD100A08B0
:10267C00EB100A08FD0E0A08A1100A08C3100A087C
:10268C00AF100A08D7100A088F100A0893100A080E
:10269C00000000000000000095110A08E5110A086E
:1026AC00F3110A08FD0E0A08D1110A0897110A083D
:1026BC00AD110A08DF110A08C3110A0891110A08A2
:1026CC000000000000000000D7130A08CD130A0810
:1026DC00C3130A0835130A08B7130A08AB130A0800
:1026EC009F130A0897130A088D130A0883130A0804
:1026FC003F130A080000000000000000000000006A
:10270C0000000000000000000000000000000000BD
:10271C0000000000000000000000000000000000AD
:10272C00000000000000000000000000000000009D
:10273C00000000000000000000000000000000008D
:10274C00000000000000000000000000000000007D
:10275C0000000000000000004300000031020A08E5
:10276C006F070A08FD080A08210E0A08E90E0A0874
:10277C00B10F0A0845100A0879100A08E1130A0873
:10278C0069160A081D170A08E1170A0865180A08CD
:04279C00E9180A0826
:0427A0000000000035
:1027A400040000000400000061260A080000000084
:1027B40004270A0824270A0844270A0800000000FE
:1027C40000000000000000000000000064270A0868
:1027D40000000000000000000000000000000000F5
:1027E40000000000000000000000000000000000E5
:1027F40000000000000000000000000000000000D5
:102804000000000000000000000000000C00002098
:10281400FFFFFFFF00000102030405060708090A81
:102824000B0C0D0E0F101112131415161718191A7C
:082834001B1C1D1E1F202800C3
:04283C007856341284
:04000005080A001CC9
:00000001FF
